{
  "contractName": "ICO",
  "abi": [
    {
      "inputs": [
        {
          "internalType": "uint256",
          "name": "_rate",
          "type": "uint256"
        },
        {
          "internalType": "address",
          "name": "_tokenBusdAddress",
          "type": "address"
        },
        {
          "internalType": "address",
          "name": "_tokenTenfiAddress",
          "type": "address"
        },
        {
          "internalType": "address",
          "name": "_beneficiary",
          "type": "address"
        }
      ],
      "stateMutability": "nonpayable",
      "type": "constructor"
    },
    {
      "anonymous": false,
      "inputs": [
        {
          "indexed": true,
          "internalType": "address",
          "name": "investor",
          "type": "address"
        },
        {
          "indexed": false,
          "internalType": "uint256",
          "name": "amount",
          "type": "uint256"
        },
        {
          "indexed": false,
          "internalType": "uint256",
          "name": "timestamp",
          "type": "uint256"
        }
      ],
      "name": "Buy",
      "type": "event"
    },
    {
      "anonymous": false,
      "inputs": [
        {
          "indexed": false,
          "internalType": "address",
          "name": "beneficiary",
          "type": "address"
        },
        {
          "indexed": false,
          "internalType": "uint256",
          "name": "timestamp",
          "type": "uint256"
        }
      ],
      "name": "ICOInitialized",
      "type": "event"
    },
    {
      "inputs": [],
      "name": "beneficiary",
      "outputs": [
        {
          "internalType": "address",
          "name": "",
          "type": "address"
        }
      ],
      "stateMutability": "view",
      "type": "function"
    },
    {
      "inputs": [],
      "name": "bnbUSDRate",
      "outputs": [
        {
          "internalType": "uint256",
          "name": "",
          "type": "uint256"
        }
      ],
      "stateMutability": "view",
      "type": "function"
    },
    {
      "inputs": [],
      "name": "busdtoken",
      "outputs": [
        {
          "internalType": "contract BUSD",
          "name": "",
          "type": "address"
        }
      ],
      "stateMutability": "view",
      "type": "function"
    },
    {
      "inputs": [],
      "name": "rate",
      "outputs": [
        {
          "internalType": "uint256",
          "name": "",
          "type": "uint256"
        }
      ],
      "stateMutability": "view",
      "type": "function"
    },
    {
      "inputs": [],
      "name": "tenToken",
      "outputs": [
        {
          "internalType": "contract Tenfi",
          "name": "",
          "type": "address"
        }
      ],
      "stateMutability": "view",
      "type": "function"
    },
    {
      "inputs": [
        {
          "internalType": "uint256",
          "name": "_amount",
          "type": "uint256"
        }
      ],
      "name": "buy",
      "outputs": [],
      "stateMutability": "nonpayable",
      "type": "function"
    }
  ],
  "bytecode": "0x60806040523480156200001157600080fd5b5060405162000fdf38038062000fdf833981810160405281019062000037919062000181565b600084116200004557600080fd5b826000806101000a81548173ffffffffffffffffffffffffffffffffffffffff021916908373ffffffffffffffffffffffffffffffffffffffff16021790555081600160006101000a81548173ffffffffffffffffffffffffffffffffffffffff021916908373ffffffffffffffffffffffffffffffffffffffff16021790555080600260006101000a81548173ffffffffffffffffffffffffffffffffffffffff021916908373ffffffffffffffffffffffffffffffffffffffff160217905550836005819055507f6fef4b3c3822e5a5ded2809fccffeaf8d2c0ebf23994221ccc6758ff0fe97e0a8142604051620001419291906200020f565b60405180910390a150505050620002ae565b60008151905062000164816200027a565b92915050565b6000815190506200017b8162000294565b92915050565b600080600080608085870312156200019857600080fd5b6000620001a8878288016200016a565b9450506020620001bb8782880162000153565b9350506040620001ce8782880162000153565b9250506060620001e18782880162000153565b91505092959194509250565b620001f8816200023c565b82525050565b620002098162000270565b82525050565b6000604082019050620002266000830185620001ed565b620002356020830184620001fe565b9392505050565b6000620002498262000250565b9050919050565b600073ffffffffffffffffffffffffffffffffffffffff82169050919050565b6000819050919050565b62000285816200023c565b81146200029157600080fd5b50565b6200029f8162000270565b8114620002ab57600080fd5b50565b610d2180620002be6000396000f3fe608060405234801561001057600080fd5b506004361061007f576000357c0100000000000000000000000000000000000000000000000000000000900480632c4e722e1461008457806338af3eed146100a25780634431640c146100c0578063a991eac0146100de578063d96a094a146100fc578063eb71ca6314610118575b600080fd5b61008c610136565b6040516100999190610a5d565b60405180910390f35b6100aa61013c565b6040516100b7919061092a565b60405180910390f35b6100c8610162565b6040516100d591906109a5565b60405180910390f35b6100e6610186565b6040516100f391906109c0565b60405180910390f35b61011660048036038101906101119190610738565b6101ac565b005b6101206102d2565b60405161012d9190610a5d565b60405180910390f35b60055481565b600260009054906101000a900473ffffffffffffffffffffffffffffffffffffffff1681565b60008054906101000a900473ffffffffffffffffffffffffffffffffffffffff1681565b600160009054906101000a900473ffffffffffffffffffffffffffffffffffffffff1681565b42636098b8a711156101bd57600080fd5b426360ac7f2710156101ce57600080fd5b60006101ea62093a80636098b8a76102d890919063ffffffff16565b4211610230576102298261021b606461020d603c876102ee90919063ffffffff16565b61030490919063ffffffff16565b6102d890919063ffffffff16565b9050610234565b8190505b61028133308460008054906101000a900473ffffffffffffffffffffffffffffffffffffffff1673ffffffffffffffffffffffffffffffffffffffff1661031a909392919063ffffffff16565b6102ce3382600160009054906101000a900473ffffffffffffffffffffffffffffffffffffffff1673ffffffffffffffffffffffffffffffffffffffff166103bf9092919063ffffffff16565b5050565b60035481565b600081836102e69190610aaa565b905092915050565b600081836102fc9190610b31565b905092915050565b600081836103129190610b00565b905092915050565b6103b9846323b872dd7c01000000000000000000000000000000000000000000000000000000000285858560405160240161035793929190610945565b604051602081830303815290604052907bffffffffffffffffffffffffffffffffffffffffffffffffffffffff19166020820180517bffffffffffffffffffffffffffffffffffffffffffffffffffffffff8381831617835250505050610461565b50505050565b61045c8363a9059cbb7c01000000000000000000000000000000000000000000000000000000000284846040516024016103fa92919061097c565b604051602081830303815290604052907bffffffffffffffffffffffffffffffffffffffffffffffffffffffff19166020820180517bffffffffffffffffffffffffffffffffffffffffffffffffffffffff8381831617835250505050610461565b505050565b60006104c3826040518060400160405280602081526020017f5361666545524332303a206c6f772d6c6576656c2063616c6c206661696c65648152508573ffffffffffffffffffffffffffffffffffffffff166105289092919063ffffffff16565b905060008151111561052357808060200190518101906104e3919061070f565b610522576040517f08c379a000000000000000000000000000000000000000000000000000000000815260040161051990610a3d565b60405180910390fd5b5b505050565b60606105378484600085610540565b90509392505050565b6060823073ffffffffffffffffffffffffffffffffffffffff1631101561059c576040517f08c379a0000000000000000000000000000000000000000000000000000000008152600401610593906109fd565b60405180910390fd5b6105a58561066b565b6105e4576040517f08c379a00000000000000000000000000000000000000000000000000000000081526004016105db90610a1d565b60405180910390fd5b6000808673ffffffffffffffffffffffffffffffffffffffff16858760405161060d9190610913565b60006040518083038185875af1925050503d806000811461064a576040519150601f19603f3d011682016040523d82523d6000602084013e61064f565b606091505b509150915061065f82828661067e565b92505050949350505050565b600080823b905060008111915050919050565b6060831561068e578290506106de565b6000835111156106a15782518084602001fd5b816040517f08c379a00000000000000000000000000000000000000000000000000000000081526004016106d591906109db565b60405180910390fd5b9392505050565b6000815190506106f481610cbd565b92915050565b60008135905061070981610cd4565b92915050565b60006020828403121561072157600080fd5b600061072f848285016106e5565b91505092915050565b60006020828403121561074a57600080fd5b6000610758848285016106fa565b91505092915050565b61076a81610b8b565b82525050565b600061077b82610a78565b6107858185610a8e565b9350610795818560208601610c1b565b80840191505092915050565b6107aa81610bd3565b82525050565b6107b981610bf7565b82525050565b60006107ca82610a83565b6107d48185610a99565b93506107e4818560208601610c1b565b6107ed81610cac565b840191505092915050565b6000610805602683610a99565b91507f416464726573733a20696e73756666696369656e742062616c616e636520666f60008301527f722063616c6c00000000000000000000000000000000000000000000000000006020830152604082019050919050565b600061086b601d83610a99565b91507f416464726573733a2063616c6c20746f206e6f6e2d636f6e74726163740000006000830152602082019050919050565b60006108ab602a83610a99565b91507f5361666545524332303a204552433230206f7065726174696f6e20646964206e60008301527f6f742073756363656564000000000000000000000000000000000000000000006020830152604082019050919050565b61090d81610bc9565b82525050565b600061091f8284610770565b915081905092915050565b600060208201905061093f6000830184610761565b92915050565b600060608201905061095a6000830186610761565b6109676020830185610761565b6109746040830184610904565b949350505050565b60006040820190506109916000830185610761565b61099e6020830184610904565b9392505050565b60006020820190506109ba60008301846107a1565b92915050565b60006020820190506109d560008301846107b0565b92915050565b600060208201905081810360008301526109f581846107bf565b905092915050565b60006020820190508181036000830152610a16816107f8565b9050919050565b60006020820190508181036000830152610a368161085e565b9050919050565b60006020820190508181036000830152610a568161089e565b9050919050565b6000602082019050610a726000830184610904565b92915050565b600081519050919050565b600081519050919050565b600081905092915050565b600082825260208201905092915050565b6000610ab582610bc9565b9150610ac083610bc9565b9250827fffffffffffffffffffffffffffffffffffffffffffffffffffffffffffffffff03821115610af557610af4610c4e565b5b828201905092915050565b6000610b0b82610bc9565b9150610b1683610bc9565b925082610b2657610b25610c7d565b5b828204905092915050565b6000610b3c82610bc9565b9150610b4783610bc9565b9250817fffffffffffffffffffffffffffffffffffffffffffffffffffffffffffffffff0483118215151615610b8057610b7f610c4e565b5b828202905092915050565b6000610b9682610ba9565b9050919050565b60008115159050919050565b600073ffffffffffffffffffffffffffffffffffffffff82169050919050565b6000819050919050565b6000610bde82610be5565b9050919050565b6000610bf082610ba9565b9050919050565b6000610c0282610c09565b9050919050565b6000610c1482610ba9565b9050919050565b60005b83811015610c39578082015181840152602081019050610c1e565b83811115610c48576000848401525b50505050565b7f4e487b7100000000000000000000000000000000000000000000000000000000600052601160045260246000fd5b7f4e487b7100000000000000000000000000000000000000000000000000000000600052601260045260246000fd5b6000601f19601f8301169050919050565b610cc681610b9d565b8114610cd157600080fd5b50565b610cdd81610bc9565b8114610ce857600080fd5b5056fea2646970667358221220d4077df1814cbe7fb956760ffc522af8003de9c8c0619795323dcc22556f87bf64736f6c63430008000033",
  "immutableReferences": {},
  "source": "// SPDX-License-Identifier: MIT\npragma solidity ^0.8.0;\n\nimport {SafeMath} from \"@openzeppelin/contracts/utils/math/SafeMath.sol\";\nimport \"@openzeppelin/contracts/token/ERC20/utils/SafeERC20.sol\";\nimport \"./BUSD.sol\";\nimport \"./Tenfi.sol\";\n\ncontract ICO {\n    using SafeMath for uint256;\n    using SafeERC20 for BUSD;\n    using SafeERC20 for Tenfi;\n\n    BUSD public busdtoken;\n    Tenfi public tenToken;\n    address  public beneficiary;\n    uint256 constant START_TIME = 1620621479;\n    uint256 constant END_TIME = 1621917479;\n    uint256 public bnbUSDRate;\n    uint256 bonus;\n    // How many token units a buyer gets per wei\n    uint256 public rate;\n\n    event ICOInitialized(address beneficiary, uint256 timestamp);\n\n    event Buy(address indexed investor, uint256 amount, uint256 timestamp);\n\n    modifier onlyBeneficiary() {\n        require(msg.sender == beneficiary, \"Unauthorised access\");\n        _;\n    }\n\n    constructor(\n        uint256 _rate,\n        address _tokenBusdAddress,\n        address _tokenTenfiAddress,\n        address  _beneficiary\n    \n    ) public {\n        require(_rate > 0);\n        busdtoken = BUSD(_tokenBusdAddress);\n        tenToken=Tenfi(_tokenTenfiAddress);\n        beneficiary = _beneficiary;\n        \n        rate = _rate;\n\n        emit ICOInitialized(_beneficiary, block.timestamp);\n    }\n\n  \n\n    function buy(uint _amount) public {\n        require(START_TIME <= block.timestamp);\n        require(END_TIME >= block.timestamp);\n\n        uint transferAmount;\n      \n        // calculate token amount to be created\n\n        if (block.timestamp <= START_TIME.add(7 days)){\n            transferAmount = _amount.mul(60).div(100).add(_amount);\n        }\n        else{\n            transferAmount = _amount;\n            \n        }\n\n        busdtoken.safeTransferFrom(msg.sender, address(this), _amount);\n        tenToken.safeTransfer(msg.sender, transferAmount);\n    \n }\n\n}\n\n",
  "sourcePath": "/home/ishita/Documents/ICO-BNB/BNB-ICO/contracts/ICO.sol",
  "compiler": {
    "name": "solc",
    "version": "0.8.0+commit.c7dfd78e.Emscripten.clang"
  },
  "schemaVersion": "3.3.4",
  "updatedAt": "2021-05-07T07:37:29.858Z",
  "devdoc": {
    "kind": "dev",
    "methods": {},
    "version": 1
  },
  "userdoc": {
    "kind": "user",
    "methods": {},
    "version": 1
  }
}